:1000000011241FBE73E177BB71E073BF71E87ABD45
:1000100070E67CBD71E670BFF894BB9A7FEF00C0BC
:10002000B29BFECF0000000000000000B29B03C0A6
:100030007F77B299FECFB29BFECF00000000000098
:100040000000B29B03C07F7BB299FECFB29BFECF74
:100050000000000000000000B29B03C07F7DB29949
:10006000FECFB29BFECF0000000000000000B29B5C
:1000700003C07F7EB299FECFB29BFECF000000008E
:1000800000000000B29B03C0777FB299FECFB29B05
:10009000FECF0000000000000000B29B03C07B7F89
:1000A000B299FECFB29BFECF00000000000000001E
:1000B000B29B03C07D7FB299FECFB29BFECF000002
:1000C000000000000000B29B03C07E7FB299FECF0B
:1000D00079BD7FEFB29BFECF000000000000000062
:1000E000B29B03C07F77B299FECFB29BFECF0000D8
:1000F000000000000000B29B03C07F7BB299FECFDE
:10010000B29BFECF0000000000000000B29B03C0C5
:100110007F7DB299FECFB29BFECF000000000000B1
:100120000000B29B03C07F7EB299FECFB29BFECF90
:100130000000000000000000B29B03C0777FB2996E
:10014000FECFB29BFECF0000000000000000B29B7B
:1001500003C07B7FB299FECFB29BFECF00000000B0
:1001600000000000B29B03C07D7FB299FECFB29B1E
:10017000FECF0000000000000000B29B03C07E7FA5
:10018000B299FECF7EBD7FEFB29BFECF0000000094
:1001900000000000B29B03C07F77B299FECFB29BF4
:1001A000FECF0000000000000000B29B03C07F7B78
:1001B000B299FECFB29BFECF00000000000000000D
:1001C000B29B03C07F7DB299FECFB29BFECF0000F1
:1001D000000000000000B29B03C07F7EB299FECFFA
:1001E000B29BFECF0000000000000000B29B03C0E5
:1001F000777FB299FECFB29BFECF000000000000D7
:100200000000B29B03C07B7FB299FECFB29BFECFB2
:100210000000000000000000B29B03C07D7FB29987
:10022000FECFB29BFECF0000000000000000B29B9A
:1002300003C07E7FB299FECF7BBD7FEFB29BFECF26
:10024000C39A00000000B29BC398B29B06C0B29B49
:1002500004C0B29B02C0B29B00C0C398B299F0CF59
:10026000B299EECFB299ECCFB299EACFB299E8CF7A
:10027000B299E6CFB299E4CFB299E2CFB299E0CF8A
:06028000B299DECFCDCEE5
:00000001FF
